{
  "contractName": "WeatherOracle",
  "abi": [
    {
      "constant": true,
      "inputs": [],
      "name": "oracleAddress",
      "outputs": [
        {
          "name": "",
          "type": "address"
        }
      ],
      "payable": false,
      "stateMutability": "view",
      "type": "function"
    },
    {
      "inputs": [
        {
          "name": "_oracleAddress",
          "type": "address"
        }
      ],
      "payable": false,
      "stateMutability": "nonpayable",
      "type": "constructor"
    },
    {
      "anonymous": false,
      "inputs": [
        {
          "indexed": false,
          "name": "weatherDescription",
          "type": "string"
        },
        {
          "indexed": false,
          "name": "temperature",
          "type": "string"
        },
        {
          "indexed": false,
          "name": "humidity",
          "type": "string"
        },
        {
          "indexed": false,
          "name": "visibility",
          "type": "string"
        },
        {
          "indexed": false,
          "name": "windSpeed",
          "type": "string"
        },
        {
          "indexed": false,
          "name": "windDirection",
          "type": "string"
        },
        {
          "indexed": false,
          "name": "windGust",
          "type": "string"
        }
      ],
      "name": "WeatherUpdate",
      "type": "event"
    },
    {
      "constant": false,
      "inputs": [
        {
          "name": "weatherDescription",
          "type": "string"
        },
        {
          "name": "temperature",
          "type": "string"
        },
        {
          "name": "humidity",
          "type": "string"
        },
        {
          "name": "visibility",
          "type": "string"
        },
        {
          "name": "windSpeed",
          "type": "string"
        },
        {
          "name": "windDirection",
          "type": "string"
        },
        {
          "name": "windGust",
          "type": "string"
        }
      ],
      "name": "updateWeather",
      "outputs": [],
      "payable": false,
      "stateMutability": "nonpayable",
      "type": "function"
    }
  ],
  "bytecode": "0x608060405234801561001057600080fd5b5060405160208061071783398101806040528101908080519060200190929190505050806000806101000a81548173ffffffffffffffffffffffffffffffffffffffff021916908373ffffffffffffffffffffffffffffffffffffffff16021790555050610694806100836000396000f30060806040526004361061004c576000357c0100000000000000000000000000000000000000000000000000000000900463ffffffff168063929d191014610051578063a89ae4ba1461025e575b600080fd5b34801561005d57600080fd5b5061025c600480360381019080803590602001908201803590602001908080601f0160208091040260200160405190810160405280939291908181526020018383808284378201915050505050509192919290803590602001908201803590602001908080601f0160208091040260200160405190810160405280939291908181526020018383808284378201915050505050509192919290803590602001908201803590602001908080601f0160208091040260200160405190810160405280939291908181526020018383808284378201915050505050509192919290803590602001908201803590602001908080601f0160208091040260200160405190810160405280939291908181526020018383808284378201915050505050509192919290803590602001908201803590602001908080601f0160208091040260200160405190810160405280939291908181526020018383808284378201915050505050509192919290803590602001908201803590602001908080601f0160208091040260200160405190810160405280939291908181526020018383808284378201915050505050509192919290803590602001908201803590602001908080601f01602080910402602001604051908101604052809392919081815260200183838082843782019150505050505091929192905050506102b5565b005b34801561026a57600080fd5b50610273610643565b604051808273ffffffffffffffffffffffffffffffffffffffff1673ffffffffffffffffffffffffffffffffffffffff16815260200191505060405180910390f35b6000809054906101000a900473ffffffffffffffffffffffffffffffffffffffff1673ffffffffffffffffffffffffffffffffffffffff163373ffffffffffffffffffffffffffffffffffffffff1614151561031057600080fd5b7fec6344556027118abac8448a3cc40772c47ba3078250f7e8f1b7dfed078f208287878787878787604051808060200180602001806020018060200180602001806020018060200188810388528f818151815260200191508051906020019080838360005b83811015610390578082015181840152602081019050610375565b50505050905090810190601f1680156103bd5780820380516001836020036101000a031916815260200191505b5088810387528e818151815260200191508051906020019080838360005b838110156103f65780820151818401526020810190506103db565b50505050905090810190601f1680156104235780820380516001836020036101000a031916815260200191505b5088810386528d818151815260200191508051906020019080838360005b8381101561045c578082015181840152602081019050610441565b50505050905090810190601f1680156104895780820380516001836020036101000a031916815260200191505b5088810385528c818151815260200191508051906020019080838360005b838110156104c25780820151818401526020810190506104a7565b50505050905090810190601f1680156104ef5780820380516001836020036101000a031916815260200191505b5088810384528b818151815260200191508051906020019080838360005b8381101561052857808201518184015260208101905061050d565b50505050905090810190601f1680156105555780820380516001836020036101000a031916815260200191505b5088810383528a818151815260200191508051906020019080838360005b8381101561058e578082015181840152602081019050610573565b50505050905090810190601f1680156105bb5780820380516001836020036101000a031916815260200191505b50888103825289818151815260200191508051906020019080838360005b838110156105f45780820151818401526020810190506105d9565b50505050905090810190601f1680156106215780820380516001836020036101000a031916815260200191505b509e50505050505050505050505050505060405180910390a150505050505050565b6000809054906101000a900473ffffffffffffffffffffffffffffffffffffffff16815600a165627a7a72305820a356d063af0afc78b2472cca0494906b196a6383c88c9fb6d6e3926f484926580029",
  "source": "pragma solidity 0.4.24;\n\n\ncontract WeatherOracle {\n  address public oracleAddress;\n\n  constructor (address _oracleAddress) public {\n    oracleAddress = _oracleAddress;\n  }\n\n  event WeatherUpdate (\n    string weatherDescription,\n    string temperature,\n    string humidity,\n    string visibility,\n    string windSpeed,\n    string windDirection,\n    string windGust\n  );\n\n  function updateWeather (\n    string weatherDescription,\n    string temperature,\n    string humidity,\n    string visibility,\n    string windSpeed,\n    string windDirection,\n    string windGust\n  )\n  public\n  {\n    require(msg.sender == oracleAddress);\n\n\n    emit WeatherUpdate (\n      weatherDescription,\n      temperature,\n      humidity,\n      visibility,\n      windSpeed,\n      windDirection,\n      windGust\n    );\n  }\n}\n",
  "sourcePath": "/Users/train/Documents/Work/Gall/weather-oracle/contracts/WeatherOracle.sol",
  "compiler": {
    "name": "solc",
    "version": "0.4.24+commit.e67f0147.Emscripten.clang"
  },
  "schemaVersion": "2.0.0",
  "updatedAt": "2018-06-12T19:17:01.484Z"
}